{
  "_format": "hh-sol-artifact-1",
  "contractName": "TestNFT",
  "sourceName": "contracts/TestNFT.sol",
  "abi": [
    {
      "anonymous": false,
      "inputs": [
        {
          "indexed": true,
          "internalType": "address",
          "name": "owner",
          "type": "address"
        },
        {
          "indexed": true,
          "internalType": "address",
          "name": "approved",
          "type": "address"
        },
        {
          "indexed": true,
          "internalType": "uint256",
          "name": "tokenId",
          "type": "uint256"
        }
      ],
      "name": "Approval",
      "type": "event"
    },
    {
      "anonymous": false,
      "inputs": [
        {
          "indexed": true,
          "internalType": "address",
          "name": "owner",
          "type": "address"
        },
        {
          "indexed": true,
          "internalType": "address",
          "name": "operator",
          "type": "address"
        },
        {
          "indexed": false,
          "internalType": "bool",
          "name": "approved",
          "type": "bool"
        }
      ],
      "name": "ApprovalForAll",
      "type": "event"
    },
    {
      "anonymous": false,
      "inputs": [
        {
          "indexed": true,
          "internalType": "address",
          "name": "from",
          "type": "address"
        },
        {
          "indexed": true,
          "internalType": "address",
          "name": "to",
          "type": "address"
        },
        {
          "indexed": true,
          "internalType": "uint256",
          "name": "tokenId",
          "type": "uint256"
        }
      ],
      "name": "Transfer",
      "type": "event"
    },
    {
      "inputs": [
        {
          "internalType": "address",
          "name": "to",
          "type": "address"
        },
        {
          "internalType": "uint256",
          "name": "tokenId",
          "type": "uint256"
        }
      ],
      "name": "approve",
      "outputs": [],
      "stateMutability": "nonpayable",
      "type": "function"
    },
    {
      "inputs": [
        {
          "internalType": "address",
          "name": "owner",
          "type": "address"
        }
      ],
      "name": "balanceOf",
      "outputs": [
        {
          "internalType": "uint256",
          "name": "",
          "type": "uint256"
        }
      ],
      "stateMutability": "view",
      "type": "function"
    },
    {
      "inputs": [
        {
          "internalType": "uint256",
          "name": "tokenId",
          "type": "uint256"
        }
      ],
      "name": "getApproved",
      "outputs": [
        {
          "internalType": "address",
          "name": "",
          "type": "address"
        }
      ],
      "stateMutability": "view",
      "type": "function"
    },
    {
      "inputs": [],
      "name": "getSVG",
      "outputs": [
        {
          "internalType": "string",
          "name": "",
          "type": "string"
        }
      ],
      "stateMutability": "pure",
      "type": "function"
    },
    {
      "inputs": [
        {
          "internalType": "address",
          "name": "owner",
          "type": "address"
        },
        {
          "internalType": "address",
          "name": "operator",
          "type": "address"
        }
      ],
      "name": "isApprovedForAll",
      "outputs": [
        {
          "internalType": "bool",
          "name": "",
          "type": "bool"
        }
      ],
      "stateMutability": "view",
      "type": "function"
    },
    {
      "inputs": [],
      "name": "mint",
      "outputs": [],
      "stateMutability": "nonpayable",
      "type": "function"
    },
    {
      "inputs": [],
      "name": "name",
      "outputs": [
        {
          "internalType": "string",
          "name": "",
          "type": "string"
        }
      ],
      "stateMutability": "view",
      "type": "function"
    },
    {
      "inputs": [],
      "name": "nextTokenId",
      "outputs": [
        {
          "internalType": "uint256",
          "name": "",
          "type": "uint256"
        }
      ],
      "stateMutability": "view",
      "type": "function"
    },
    {
      "inputs": [
        {
          "internalType": "uint256",
          "name": "tokenId",
          "type": "uint256"
        }
      ],
      "name": "ownerOf",
      "outputs": [
        {
          "internalType": "address",
          "name": "",
          "type": "address"
        }
      ],
      "stateMutability": "view",
      "type": "function"
    },
    {
      "inputs": [
        {
          "internalType": "address",
          "name": "from",
          "type": "address"
        },
        {
          "internalType": "address",
          "name": "to",
          "type": "address"
        },
        {
          "internalType": "uint256",
          "name": "tokenId",
          "type": "uint256"
        }
      ],
      "name": "safeTransferFrom",
      "outputs": [],
      "stateMutability": "nonpayable",
      "type": "function"
    },
    {
      "inputs": [
        {
          "internalType": "address",
          "name": "from",
          "type": "address"
        },
        {
          "internalType": "address",
          "name": "to",
          "type": "address"
        },
        {
          "internalType": "uint256",
          "name": "tokenId",
          "type": "uint256"
        },
        {
          "internalType": "bytes",
          "name": "_data",
          "type": "bytes"
        }
      ],
      "name": "safeTransferFrom",
      "outputs": [],
      "stateMutability": "nonpayable",
      "type": "function"
    },
    {
      "inputs": [
        {
          "internalType": "address",
          "name": "operator",
          "type": "address"
        },
        {
          "internalType": "bool",
          "name": "approved",
          "type": "bool"
        }
      ],
      "name": "setApprovalForAll",
      "outputs": [],
      "stateMutability": "nonpayable",
      "type": "function"
    },
    {
      "inputs": [
        {
          "internalType": "bytes4",
          "name": "interfaceId",
          "type": "bytes4"
        }
      ],
      "name": "supportsInterface",
      "outputs": [
        {
          "internalType": "bool",
          "name": "",
          "type": "bool"
        }
      ],
      "stateMutability": "view",
      "type": "function"
    },
    {
      "inputs": [],
      "name": "symbol",
      "outputs": [
        {
          "internalType": "string",
          "name": "",
          "type": "string"
        }
      ],
      "stateMutability": "view",
      "type": "function"
    },
    {
      "inputs": [
        {
          "internalType": "uint256",
          "name": "tokenId",
          "type": "uint256"
        }
      ],
      "name": "tokenURI",
      "outputs": [
        {
          "internalType": "string",
          "name": "",
          "type": "string"
        }
      ],
      "stateMutability": "view",
      "type": "function"
    },
    {
      "inputs": [
        {
          "internalType": "address",
          "name": "from",
          "type": "address"
        },
        {
          "internalType": "address",
          "name": "to",
          "type": "address"
        },
        {
          "internalType": "uint256",
          "name": "tokenId",
          "type": "uint256"
        }
      ],
      "name": "transferFrom",
      "outputs": [],
      "stateMutability": "nonpayable",
      "type": "function"
    }
  ],
  "bytecode": "0x608060405260006006553480156200001657600080fd5b50604080518082018252600781526615195cdd13919560ca1b6020808301918252835180850190945260048452631513919560e21b908401528151919291620000629160009162000081565b5080516200007890600190602084019062000081565b50505062000164565b8280546200008f9062000127565b90600052602060002090601f016020900481019282620000b35760008555620000fe565b82601f10620000ce57805160ff1916838001178555620000fe565b82800160010185558215620000fe579182015b82811115620000fe578251825591602001919060010190620000e1565b506200010c92915062000110565b5090565b5b808211156200010c576000815560010162000111565b600181811c908216806200013c57607f821691505b602082108114156200015e57634e487b7160e01b600052602260045260246000fd5b50919050565b611c1980620001746000396000f3fe608060405234801561001057600080fd5b50600436106101005760003560e01c80636352211e11610097578063a22cb46511610066578063a22cb465146101fd578063b88d4fde14610210578063c87b56dd14610223578063e985e9c51461023657600080fd5b80636352211e146101b857806370a08231146101cb57806375794a3c146101ec57806395d89b41146101f557600080fd5b80631249c58b116100d35780631249c58b1461018257806323b872dd1461018a57806342842e0e1461019d578063489187e8146101b057600080fd5b806301ffc9a71461010557806306fdde031461012d578063081812fc14610142578063095ea7b31461016d575b600080fd5b6101186101133660046112dd565b610272565b60405190151581526020015b60405180910390f35b6101356102c4565b6040516101249190611987565b610155610150366004611317565b610356565b6040516001600160a01b039091168152602001610124565b61018061017b3660046112b3565b6103f0565b005b610180610506565b61018061019836600461115f565b610530565b6101806101ab36600461115f565b610561565b61013561057c565b6101556101c6366004611317565b6105a1565b6101de6101d936600461110a565b610618565b604051908152602001610124565b6101de60065481565b61013561069f565b61018061020b366004611277565b6106ae565b61018061021e36600461119b565b6106bd565b610135610231366004611317565b6106f5565b61011861024436600461112c565b6001600160a01b03918216600090815260056020908152604080832093909416825291909152205460ff1690565b60006001600160e01b031982166380ac58cd60e01b14806102a357506001600160e01b03198216635b5e139f60e01b145b806102be57506301ffc9a760e01b6001600160e01b03198316145b92915050565b6060600080546102d390611acb565b80601f01602080910402602001604051908101604052809291908181526020018280546102ff90611acb565b801561034c5780601f106103215761010080835404028352916020019161034c565b820191906000526020600020905b81548152906001019060200180831161032f57829003601f168201915b5050505050905090565b6000818152600260205260408120546001600160a01b03166103d45760405162461bcd60e51b815260206004820152602c60248201527f4552433732313a20617070726f76656420717565727920666f72206e6f6e657860448201526b34b9ba32b73a103a37b5b2b760a11b60648201526084015b60405180910390fd5b506000908152600460205260409020546001600160a01b031690565b60006103fb826105a1565b9050806001600160a01b0316836001600160a01b031614156104695760405162461bcd60e51b815260206004820152602160248201527f4552433732313a20617070726f76616c20746f2063757272656e74206f776e656044820152603960f91b60648201526084016103cb565b336001600160a01b038216148061048557506104858133610244565b6104f75760405162461bcd60e51b815260206004820152603860248201527f4552433732313a20617070726f76652063616c6c6572206973206e6f74206f7760448201527f6e6572206e6f7220617070726f76656420666f7220616c6c000000000000000060648201526084016103cb565b61050183836107e7565b505050565b60068054908190600061051883611b06565b919050555061052d6105273390565b82610855565b50565b61053a338261086f565b6105565760405162461bcd60e51b81526004016103cb906119ec565b610501838383610966565b610501838383604051806020016040528060008152506106bd565b606060405160200161058d9061142f565b604051602081830303815290604052905090565b6000818152600260205260408120546001600160a01b0316806102be5760405162461bcd60e51b815260206004820152602960248201527f4552433732313a206f776e657220717565727920666f72206e6f6e657869737460448201526832b73a103a37b5b2b760b91b60648201526084016103cb565b60006001600160a01b0382166106835760405162461bcd60e51b815260206004820152602a60248201527f4552433732313a2062616c616e636520717565727920666f7220746865207a65604482015269726f206164647265737360b01b60648201526084016103cb565b506001600160a01b031660009081526003602052604090205490565b6060600180546102d390611acb565b6106b9338383610b06565b5050565b6106c7338361086f565b6106e35760405162461bcd60e51b81526004016103cb906119ec565b6106ef84848484610bd5565b50505050565b6000818152600260205260409020546060906001600160a01b03166107745760405162461bcd60e51b815260206004820152602f60248201527f4552433732314d657461646174613a2055524920717565727920666f72206e6f60448201526e3732bc34b9ba32b73a103a37b5b2b760891b60648201526084016103cb565b600061077e61057c565b9050600061078b84610c08565b61079483610d06565b6040516020016107a592919061135c565b60405160208183030381529060405290506107bf81610d06565b6040516020016107cf9190611905565b60405160208183030381529060405292505050919050565b600081815260046020526040902080546001600160a01b0319166001600160a01b038416908117909155819061081c826105a1565b6001600160a01b03167f8c5be1e5ebec7d5bd14f71427d1e84f3dd0314c0f7b2291e5b200ac8c7c3b92560405160405180910390a45050565b6106b9828260405180602001604052806000815250610e6c565b6000818152600260205260408120546001600160a01b03166108e85760405162461bcd60e51b815260206004820152602c60248201527f4552433732313a206f70657261746f7220717565727920666f72206e6f6e657860448201526b34b9ba32b73a103a37b5b2b760a11b60648201526084016103cb565b60006108f3836105a1565b9050806001600160a01b0316846001600160a01b0316148061092e5750836001600160a01b031661092384610356565b6001600160a01b0316145b8061095e57506001600160a01b0380821660009081526005602090815260408083209388168352929052205460ff165b949350505050565b826001600160a01b0316610979826105a1565b6001600160a01b0316146109e15760405162461bcd60e51b815260206004820152602960248201527f4552433732313a207472616e73666572206f6620746f6b656e2074686174206960448201526839903737ba1037bbb760b91b60648201526084016103cb565b6001600160a01b038216610a435760405162461bcd60e51b8152602060048201526024808201527f4552433732313a207472616e7366657220746f20746865207a65726f206164646044820152637265737360e01b60648201526084016103cb565b610a4e6000826107e7565b6001600160a01b0383166000908152600360205260408120805460019290610a77908490611a88565b90915550506001600160a01b0382166000908152600360205260408120805460019290610aa5908490611a3d565b909155505060008181526002602052604080822080546001600160a01b0319166001600160a01b0386811691821790925591518493918716917fddf252ad1be2c89b69c2b068fc378daa952ba7f163c4a11628f55a4df523b3ef91a4505050565b816001600160a01b0316836001600160a01b03161415610b685760405162461bcd60e51b815260206004820152601960248201527f4552433732313a20617070726f766520746f2063616c6c65720000000000000060448201526064016103cb565b6001600160a01b03838116600081815260056020908152604080832094871680845294825291829020805460ff191686151590811790915591519182527f17307eab39ab6107e8899845ad3d59bd9653f200f220920489ca2b5937696c31910160405180910390a3505050565b610be0848484610966565b610bec84848484610e9f565b6106ef5760405162461bcd60e51b81526004016103cb9061199a565b606081610c2c5750506040805180820190915260018152600360fc1b602082015290565b8160005b8115610c565780610c4081611b06565b9150610c4f9050600a83611a55565b9150610c30565b60008167ffffffffffffffff811115610c7157610c71611b77565b6040519080825280601f01601f191660200182016040528015610c9b576020820181803683370190505b5090505b841561095e57610cb0600183611a88565b9150610cbd600a86611b21565b610cc8906030611a3d565b60f81b818381518110610cdd57610cdd611b61565b60200101906001600160f81b031916908160001a905350610cff600a86611a55565b9450610c9f565b6060815160001415610d2657505060408051602081019091526000815290565b6000604051806060016040528060408152602001611ba46040913990506000600384516002610d559190611a3d565b610d5f9190611a55565b610d6a906004611a69565b90506000610d79826020611a3d565b67ffffffffffffffff811115610d9157610d91611b77565b6040519080825280601f01601f191660200182016040528015610dbb576020820181803683370190505b509050818152600183018586518101602084015b81831015610e27576003830192508251603f8160121c168501518253600182019150603f81600c1c168501518253600182019150603f8160061c168501518253600182019150603f8116850151825350600101610dcf565b600389510660018114610e415760028114610e5257610e5e565b613d3d60f01b600119830152610e5e565b603d60f81b6000198301525b509398975050505050505050565b610e768383610fac565b610e836000848484610e9f565b6105015760405162461bcd60e51b81526004016103cb9061199a565b60006001600160a01b0384163b15610fa157604051630a85bd0160e11b81526001600160a01b0385169063150b7a0290610ee390339089908890889060040161194a565b602060405180830381600087803b158015610efd57600080fd5b505af1925050508015610f2d575060408051601f3d908101601f19168201909252610f2a918101906112fa565b60015b610f87573d808015610f5b576040519150601f19603f3d011682016040523d82523d6000602084013e610f60565b606091505b508051610f7f5760405162461bcd60e51b81526004016103cb9061199a565b805181602001fd5b6001600160e01b031916630a85bd0160e11b14905061095e565b506001949350505050565b6001600160a01b0382166110025760405162461bcd60e51b815260206004820181905260248201527f4552433732313a206d696e7420746f20746865207a65726f206164647265737360448201526064016103cb565b6000818152600260205260409020546001600160a01b0316156110675760405162461bcd60e51b815260206004820152601c60248201527f4552433732313a20746f6b656e20616c7265616479206d696e7465640000000060448201526064016103cb565b6001600160a01b0382166000908152600360205260408120805460019290611090908490611a3d565b909155505060008181526002602052604080822080546001600160a01b0319166001600160a01b03861690811790915590518392907fddf252ad1be2c89b69c2b068fc378daa952ba7f163c4a11628f55a4df523b3ef908290a45050565b80356001600160a01b038116811461110557600080fd5b919050565b60006020828403121561111c57600080fd5b611125826110ee565b9392505050565b6000806040838503121561113f57600080fd5b611148836110ee565b9150611156602084016110ee565b90509250929050565b60008060006060848603121561117457600080fd5b61117d846110ee565b925061118b602085016110ee565b9150604084013590509250925092565b600080600080608085870312156111b157600080fd5b6111ba856110ee565b93506111c8602086016110ee565b925060408501359150606085013567ffffffffffffffff808211156111ec57600080fd5b818701915087601f83011261120057600080fd5b81358181111561121257611212611b77565b604051601f8201601f19908116603f0116810190838211818310171561123a5761123a611b77565b816040528281528a602084870101111561125357600080fd5b82602086016020830137600060208483010152809550505050505092959194509250565b6000806040838503121561128a57600080fd5b611293836110ee565b9150602083013580151581146112a857600080fd5b809150509250929050565b600080604083850312156112c657600080fd5b6112cf836110ee565b946020939093013593505050565b6000602082840312156112ef57600080fd5b813561112581611b8d565b60006020828403121561130c57600080fd5b815161112581611b8d565b60006020828403121561132957600080fd5b5035919050565b60008151808452611348816020860160208601611a9f565b601f01601f19169290920160200192915050565b727b226e616d65223a2022546573744e4654202360681b8152825160009061138b816013850160208801611a9f565b7f222c20226465736372697074696f6e223a2022546573744e46542069732061206013918401918201527f66756c6c206f6e2d636861696e2074657874204e46542e222c2022696d61676560338201527f223a2022646174613a696d6167652f7376672b786d6c3b6261736536342c000060538201528351611414816071840160208801611a9f565b61227d60f01b60719290910191820152607301949350505050565b7f3c7376672077696474683d2233303022206865696768743d223330302220766981527f6577426f783d22302c20302c203330302c203330302220786d6c6e733d22687460208201527f74703a2f2f7777772e77332e6f72672f323030302f737667223e00000000000060408201527f3c726563742077696474683d223130302522206865696768743d223130302522605a82015271103334b6361e9111b31932b2b1b11110179f60711b607a8201527f3c666f726569676e4f626a65637420783d2231302220793d2231302220776964608c820152753a341e91191c1811103432b4b3b43a1e91191c18111f60511b60ac8201527f3c64697620786d6c6e733d22687474703a2f2f7777772e77332e6f72672f313960c28201527f39392f7868746d6c22207374796c653d22666f6e742d73697a653a782d736d6160e28201527336361dba32bc3a16b4b73232b73a1d18b2b6911f60611b6101028201527f3c703e412e20442e2031302c3030302e206d6f7265207468616e2073697820686101168201527f756e64726564207965617273206f66206167652c207761732077616c6b696e676101368201527f2077697468206120626f79207468726f7567682061206772656174206d7573656101568201527f756d2e205468652070656f706c652077686f2077657265206d6f76696e6720616101768201527f726f756e64207468656d206861642062656175746966756c20666f726d732c206101968201527f616e64206661636573207768696368207765726520696e6465736372696261626101b68201527f6c7920726566696e656420616e642073706972697475616c2e3c2f703e0000006101d68201527f3c703e224661746865722c2220736169642074686520626f792c2022796f75206101f38201527f70726f6d6973656420746f2074656c6c206d6520746f2d6461792061626f75746102138201527f20746865204461726b20416765732e2049206c696b6520746f206865617220686102338201527f6f77206d656e206c6976656420616e642074686f75676874206c6f6e67206167610253820152663797111e17b81f60c91b6102738201527f3c703e224974206973206e6f2065617379207461736b20746f206d616b65207961027a8201527f6f7520756e6465727374616e642074686520706173742c22207761732074686561029a8201527f207265706c792e20224974206973206861726420746f207265616c697a6520746102ba8201527f686174206d616e20636f756c642068617665206265656e20736f2069676e6f726102da8201527f616e74206173206865207761732065696768742074686f7573616e64207965616102fa8201527f72732061676f2c2062757420636f6d652077697468206d653b20492077696c6c61031a8201527f2073686f7720796f7520736f6d657468696e672e223c2f703e0000000000000061033a8201527f3c703e4865206c65642074686520626f7920746f206120636162696e657420636103538201527f6f6e7461696e696e672061206665772074696d652d776f726e20626f6f6b73206103738201527f626f756e6420696e20736f6c696420676f6c642e3c2f703e00000000000000006103938201527f3c2f6469763e3c2f666f726569676e4f626a6563743e3c2f7376673e000000006103ab82015260006103c782016102be565b7f646174613a6170706c69636174696f6e2f6a736f6e3b6261736536342c00000081526000825161193d81601d850160208701611a9f565b91909101601d0192915050565b6001600160a01b038581168252841660208201526040810183905260806060820181905260009061197d90830184611330565b9695505050505050565b6020815260006111256020830184611330565b60208082526032908201527f4552433732313a207472616e7366657220746f206e6f6e20455243373231526560408201527131b2b4bb32b91034b6b83632b6b2b73a32b960711b606082015260800190565b60208082526031908201527f4552433732313a207472616e736665722063616c6c6572206973206e6f74206f6040820152701ddb995c881b9bdc88185c1c1c9bdd9959607a1b606082015260800190565b60008219821115611a5057611a50611b35565b500190565b600082611a6457611a64611b4b565b500490565b6000816000190483118215151615611a8357611a83611b35565b500290565b600082821015611a9a57611a9a611b35565b500390565b60005b83811015611aba578181015183820152602001611aa2565b838111156106ef5750506000910152565b600181811c90821680611adf57607f821691505b60208210811415611b0057634e487b7160e01b600052602260045260246000fd5b50919050565b6000600019821415611b1a57611b1a611b35565b5060010190565b600082611b3057611b30611b4b565b500690565b634e487b7160e01b600052601160045260246000fd5b634e487b7160e01b600052601260045260246000fd5b634e487b7160e01b600052603260045260246000fd5b634e487b7160e01b600052604160045260246000fd5b6001600160e01b03198116811461052d57600080fdfe4142434445464748494a4b4c4d4e4f505152535455565758595a6162636465666768696a6b6c6d6e6f707172737475767778797a303132333435363738392b2fa26469706673582212205aebd8daf987d0b8aa6eddadc69a5b787c57133292de7dbc793788b7b74ec95f64736f6c63430008070033",
  "linkReferences": {},
  "deployedLinkReferences": {}
}